:020000040040BA
:10000000582E40208D1140008B1140008B11400074
:100010008B1140008B1140008B114000000000004C
:100020000000000000000000000000006515400016
:100030008B11400000000000051640006D164000C6
:100040008B1140008B1140008B1140002D3540007A
:100050008B1140008B1140008B1140008B11400030
:100060008B114000000000007D0E4000910E40000A
:10007000A50E40008B1140008B1140008B114000F9
:10008000B90E4000CD0E40008B1140008B11400096
:100090008B1140008B1140008B1140008B114000F0
:1000A000C93340008B1140008B1140008B11400080
:1000B0008B1140008B1140008B1140008B114000D0
:1000C0008B1140008B1140008B1140008B114000C0
:1000D000000000008B114000000000008B11400068
:1000E0008B1140008B1140008B1140008B114000A0
:1000F0008B1140008B1140008B1140008B11400090
:100100008B1140008B1140008B1140008B1140007F
:100110008B11400000000000000000000000000003
:100120008B1140008B1140008B1140008B1140005F
:100130008B114000000000008B1140008B1140002B
:1001400010B5054C237833B9044B13B10448AFF311
:1001500000800123237010BDD00940200000000062
:10016000486B40000C4B43B10C480D4910B5AFF340
:1001700000800C48036823B910BD0A48036833B9EE
:100180007047094B002BF7D0BDE810401847064BCD
:10019000002BF5D0184700BF00000000486B40005E
:1001A000D4094020486B400000000000034B1B684E
:1001B00043F480231943016000207047EC0940207C
:1001C00041B9094A136823F080731360026813432E
:1001D00003607047044A136843F080731360026839
:1001E00013430360704700BFEC0940200268034BD3
:1001F0001B68194311430160704700BFEC094020A0
:10020000036823EA0101024B1B6819430160704730
:10021000EC094020826883689A4203D08268836830
:100220009342FBD118467047C068704770B50646C8
:100230000D46046804F480344FF4803109480A4BB9
:1002400098472DB94FF0FF33736024B9002070BD7B
:10025000013D7560F9E74FF480310248034B984740
:10026000F4E700BF30180E4001024000ED014000ED
:1002700008B5074B984203D0064B984204D008BDFE
:100280001520054B984708BD2A20034B9847F6E7F1
:10029000008000400080054001104000436823F4C6
:1002A000702343604368090401F4702119434160DD
:1002B000704730B443F69924056915F0020F03D155
:1002C000013CF9D101200CE0446814F0020F06D083
:1002D000120402F4702211430BB141F08071C1602D
:1002E000002030BC704732B900EB8100036B23F073
:1002F00001030363704700EB8100036B43F00103CC
:100300000363704732B900EB8100036B23F00203F3
:100310000363704700EB8100036B43F00203036348
:100320007047042A03D06AB1082A16D0704700EB40
:100330008100036B23F008030363036B43F00403A2
:100340000363704700EB8100036B23F00803036332
:10035000036B23F004030363704700EB8100036B1E
:1003600043F008030363E1E700EB81010B6B23F02B
:10037000F0030B630B6B1A430A637047431E194467
:10038000B1FBF0F0431EFE2B94BF00B24FF0FF30E4
:1003900070477AB110B4144600EB81010B6B23F463
:1003A0007F430B630A6B42EA04220A6300205DF874
:1003B000044B70474FF0FF30704710B48901431869
:1003C000022444504FF0FF319962196A5A605DF877
:1003D000044B7047890105234350704700EB81119E
:1003E000CA61704700EB81114A62704700EB8111CE
:1003F000086A7047F0B486B002240194082402947D
:1004000020240394802404940A9CE40B0594B0EB0C
:10041000510F14D84C0CA04217D2012501AF57F848
:100420002540B1FBF4F4260C84420AD386420DD950
:100430000135052DF3D1002006B0F0BC7047002037
:10044000FAE70020F8E70120F6E700252AB106A91F
:1004500001EB850151F8141C1160002BF3D01D60D5
:100460000120E9E7014B1860704700BFF009402008
:10047000024B1B6803EBC01042547047F009402048
:10048000024B1B6803EBC010405C7047F009402032
:100490002DE9F0478418802C02DDC0F18004E2B21F
:1004A00022B3CD08A1EBC501012606FA01F1CEB2B7
:1004B000012B1DD0002B35D0022B17D10138C7B22C
:1004C000D419E4B2DFF890A04FF00009DFF88C8077
:1004D00021462846D04786EA00024B46D2B2214642
:1004E0002846C047013CE4B2BC42F1D1BDE8F087E8
:1004F0000138C7B2D419E4B2DFF85CA04FF00009AC
:10050000DFF8588021462846D04746EA00024B468D
:10051000D2B221462846C047013CE4B2BC42F1D1E8
:10052000BDE8F0870138C7B2D419E4B2DFF82880FB
:10053000CE43DFF8289021462846C04706EA00024D
:100540000023D2B221462846C847013CE4B2BC424F
:10055000F1D1BDE8F08700BF910740008D06400053
:100560002DE9F8439DF820708BB11C469046064655
:100570004D1EEDB22C44E4B2DFF818903B464246E3
:1005800021463046C847013CE4B2AC42F6D1BDE852
:10059000F88300BF910440002DE9F04F83B004467A
:1005A000884691469B465B7A9BF808200021009183
:1005B00049464046214DA8479BF8003013B103B08F
:1005C000BDE8F08F9BF80820D30812F0070F18BF82
:1005D00001339BF809A09BF80A70E71B17FB0AF789
:1005E00017FB03F7DBF8043013FA87F71FE064000A
:1005F000E4B20135EBB29E4210D9EBB208EB030036
:10060000C0B213F0070F08BF17F8014B14F0800FAA
:10061000EDD0012249460A4B9847E8E709F1010964
:100620005FFA89F90AF1FF3A1AF0FF0AC7D09BF87E
:100630000860002EF2D000252C46DEE76105400060
:100640002D0740002DE9F843044690461D46894693
:100650000D4F0E4608E06A7A013242445FFA82F892
:10066000B14614F8013F6BB120780A28F3D00D2869
:10067000F7D02B4642464946B8472B7A99445FFA51
:1006800089F9EEE7BDE8F8839905400070B50446A6
:100690000D4616461BB90D4B9847B04215D0324651
:1006A000294620460A4B984704F00F0040F0B0005E
:1006B000084CA047C5F3021040F01000A04705F019
:1006C0000F00A0473046044B984770BD810440009E
:1006D000710440009D074000BD0940002DE9F04134
:1006E0000D480E4B98470E4B984740200D4B9847AE
:1006F00000254FF001082F460B4E002443463A4692
:10070000E1B22846B0470134802CF7D10135EDB273
:10071000042DF2D1BDE8F081F409402065044000C9
:10072000DD0740009D0740008D064000C3092AD127
:100730001F2928D82DE9F04114460546CE08A1EB23
:10074000C601012202FA01F75FFA87F80146304636
:100750000D4B98470246012C09D064B1022C0ED0F3
:10076000002329463046094CA047BDE8F08148EAFD
:100770000002D2B2F4E720EA0702D2B2F0E788EA38
:100780000002D2B2ECE77047810440008D064000C1
:1007900008B5014B984708BD8104400038B50546AF
:1007A0000822094B5A63094C01212046084B9847FF
:1007B00001231A4629462046064CA0474FF4FD70F7
:1007C000054B984738BD00BF00100E400080004028
:1007D0009D024000B3024000010040202DE9F84393
:1007E000664D4FF400362E61C5F8A060644B0827B3
:1007F0001F61C3F8A0706E66C5F890606E656E628A
:10080000C5F880602A6F22F400322A676A6F22F4EA
:1008100000326A675F66C3F890705F655F62C3F815
:1008200080701A6F22F008021A675A6F22F00802CD
:100830005A671F602E601F632E63DFF87C810023E0
:100840004FF480024FF0805140464E4CA0470023A9
:100850004FF400124FF080514046A04700234FF064
:1008600000724FF080514046A04700234FF48002B1
:100870004FF080514046A04700234FF400124FF044
:1008800080514046A04700234FF000724FF0805146
:100890004046A0473C4C4FF00209C4F800904FF08E
:1008A0008008C4F80080636843F0010363603A463F
:1008B00001212046354B9847002201212046344B28
:1008C0009847002201212046324B9847636823F065
:1008D000020363600022012120462F4B9847636882
:1008E00023F080036360636843F0100363602B4967
:1008F0002B482C4B9847C2B2012120462A4B9847DF
:1009000020462A4B9847012323606E6340F6B83097
:10091000274CA0472E6340F6B830A0472E63A8208E
:10092000244CA0471F20A047D320A0470020A04769
:100930004020A047A120A047C820A047DA20A04718
:100940004846A0478120A0478F20A047A420A04769
:10095000A620A047D520A0474046A0478D20A0470D
:100960001420A047DB20A0474020A047D920A04763
:10097000F120A047AF20A047BDE8F88300120E4049
:1009800000100E40890D400000800040230340000D
:10099000E7024000050340006903400080D1F008F1
:1009A00080841E007D0340009303400071024000DC
:1009B000010040209D07400000140E4038B5054658
:1009C0000822094B1A63094C01212046084B98471D
:1009D00001231A4629462046064CA0474FF4FD70D5
:1009E000054B984738BD00BF00100E400080004006
:1009F0009D024000B30240000100402010B51048A5
:100A0000104B98473E2100200F4B98470F4CA047B2
:100A10000028FCD00E4B98470E4A0F4B9A620F4CA1
:100A2000A0470028FCD002200D4B984700200D4B1A
:100A300098470D4B98470248024B984710BD00BF9E
:100A400000A3E111611340007D0F4000D10F400071
:100A5000E10F4000013F182000060E40F10F40005A
:100A6000E10E4000190F4000551240002DE9F04101
:100A700080B90C469046002A0FDD8F18084E094DAC
:100A8000306821462B6898470134BC42F8D1404673
:100A9000BDE8F0814FF0FF38F9E78046F7E700BF87
:100AA000E80D4020E00D40200138022815D82DE93E
:100AB000F0410E4614469AB10D46DFF838800C4FCF
:100AC000D8F8000015F8011B3B68984700280ADB9E
:100AD000A81B013CF4D1BDE8F0814FF0FF30704716
:100AE0001046BDE8F0814FF0FF30BDE8F08100BF57
:100AF000E40D4020E80D4020F8B54FF400425C4B77
:100B00005A60BFF34F8FBFF36F8F5A4B0022C3F869
:100B100050225A6942F400325A61BFF34F8FBFF33B
:100B20006F8FD3F88070C7F34E3607F0070004309C
:100B3000C7F3C907B7FA87FE0EF01F0EBFF34F8F3A
:100B40004FF0FF3404FA00FC06FA00F004FA0EF449
:100B500007FA0EFE1D463A46734640EA0301C5F801
:100B60006012013A2344B2F1FF3FF6D1013E6044E6
:100B7000B6F1FF3FEFD1BFF34F8F3E4B5A6942F4BE
:100B800080325A61BFF34F8FBFF36F8F3A4A3B49B0
:100B90005160A1F580715160BFF34F8FBFF36F8F2C
:100BA000D3F8902222F00102C3F89022D3F89422C5
:100BB00022F00102C3F89422BFF34F8FBFF36F8F6F
:100BC0000A202F4CA0470B20A0470C20A047102044
:100BD000A0471120A0472B4B4FF480721A61C3F835
:100BE000A0201A63A3F580634FF400625A61C3F832
:100BF000A0205A66C3F890205A651A62C3F8842070
:100C0000196F21F400611967596F21F40061596768
:100C1000C3F8C020C3F8D420C3F8B0204FF40012AA
:100C20001A66C3F890205A655A62C3F88020196F7B
:100C300021F400111967596F21F4001159675A60A6
:100C4000114AD2F8143143F01003C2F814310F4B9B
:100C500010221A66C3F890205A655A62C3F88020A1
:100C6000196F11431967596F114359675A60F8BDDD
:100C700050180E4000ED00E0000C0E400C08005A29
:100C80000110400000120E400080084000100E408D
:100C900001637047416370474264B1F1C05F3AD06D
:100CA00013D8B1F1006F25D0B1F1805F0AD1036F85
:100CB00013430367436F416F0B4023EA020343670B
:100CC000426070470029FBD17047B1F1205F21D00D
:100CD00009D8B1F1005FF3D1036F13430367436F8A
:100CE00013434367ECE7B1F1405F13D0B1F1605FAC
:100CF00010D0E5E710B4016F046FD34321401C46C8
:100D000019400167436F416F0B40234043674260C6
:100D10005DF8044B7047036F016F0B4023EA020339
:100D20000367436F13434367CAE7416412F0010F3F
:100D30000DD1016612F00A0F0BD0016212F0020F02
:100D400009D112F0080F08D0C0F8841005E0416600
:100D5000F0E74162F2E7C0F880104161016070473E
:100D600010B4019C41644CB901664BB101654AB9AC
:100D70004163016101605DF8044B70474166F4E72F
:100D80004165F4E70163F4E770B582B005461646A5
:100D90001C46B1F1005F14D00AD9B1F1405F24D0F4
:100DA000B1F1605F21D0B1F1205F17D000201AE0CF
:100DB000B1F1805F05D0B1F1C05F02D0B1F1006F39
:100DC000F4D132462846114B984714F0010F02D156
:100DD0002E66012007E06E66012004E01A463146C7
:100DE0000B4B9847012002B070BD04F00103009343
:100DF000C4F38003B1F1605F14BF002201223146C9
:100E00002846044CA0470120EDE700BF990C4000A4
:100E10002B0D4000610D4000836B0B4214BF01207D
:100E200000207047C06C7047806C70472DE9F0411E
:100E3000044688460E4B9847054620460D4B98477A
:100E4000054013D00C4C04F1600603E0B4420DD011
:100E500010345DB120684045F8D161682942F5D071
:100E6000E3689847636825EA0305EFE7BDE8F0818A
:100E7000250E4000290E4000F40B402008B50A2141
:100E80000148024B984708BD000E0E402D0E400051
:100E900008B50B210148024B984708BD00100E40D1
:100EA0002D0E400008B50C210148024B984708BDA3
:100EB00000120E402D0E400008B510210148024BD3
:100EC000984708BD00140E402D0E400008B51121B2
:100ED0000148024B984708BD00160E402D0E4000F9
:100EE000032811D0042812D002280CBF4FF48071BF
:100EF0000021084A136B23F440730B431363936E72
:100F000013F0080FFBD070474FF44071F1E74FF436
:100F10000071EEE700060E40174A136B23F07003D2
:100F200018431063936E13F0080F0AD14FF48053E7
:100F300011498A6E12F0080F03D1013BF9D101204B
:100F400070470D4A136B23F0030343F0020313634E
:100F5000936E13F0080F0AD14FF4805306498A6E3E
:100F600012F0080F05D1013BF9D101207047002094
:100F700070470020704700BF00060E40A0B90E4821
:100F8000036A090289B20D4A1A400D4B13431943F3
:100F900001620246936E13F0010FFBD0064A116AFC
:100FA000084B0B431362704703490B6A064A1A4009
:100FB000064B13430B62704700060E40FCFFC8FF50
:100FC0000100370000003701FCFFC8FE02003701B6
:100FD000024B986E00F48030704700BF00060E4050
:100FE0004FF00052014B9A62704700BF00060E405E
:100FF000024B986E00F00200704700BF00060E40E2
:101000003F281ED81F280CD8114B9A690123834012
:10101000934318D0012303FA00F00D4B1861002010
:10102000704720380A4BD3F80821012383409343AB
:101030000BD0012303FA00F0054BC3F80001002098
:10104000704701207047002070470020704700BFA4
:1010500000060E40436913F0020F02D0C161002068
:10106000704701207047436913F0010F03D0836973
:101070000B70002070470120704710B40B019342A1
:1010800014D9C9004B0803EBC202B2FBF1F2D3083A
:101090005C1E4FF6FE718C4201D9012017E04168B9
:1010A00041F4002141600CE0012010E0590801EBFF
:1010B000C202B2FBF3F2D3085C1E4FF6FE718C4203
:1010C000F2D8120402F4E0221A43026200205DF812
:1010D000044B7047084BC0F8E43000234360436280
:1010E000836288230360242303604FF480730360CA
:1010F0004FF40023036070470041535570B5054617
:101100000C4616460F4B984700220F4B1A60A4B1AD
:101110003246216828460D4B9847024678B96368E5
:10112000A1680B4321690B43E1680B4306490B603F
:1011300069680B436B60104670BD0122FBE701221A
:10114000F9E700BFD5104000640C40207B10400040
:10115000402303607047102303607047436913F016
:10116000020F04D0C1F30801C161002070470120C3
:101170007047436913F0010F05D08369C3F3080377
:101180000B600020704701207047FEE700B583B078
:10119000254B264A9A4210D0254B234A9A420CD21C
:1011A000013B9B1A23F00303043313441F4951F8F6
:1011B000040B42F8040B9A42F9D11E4B1E4A9A4284
:1011C0000AD2013B9B1A23F003030433134400218A
:1011D00042F8041B9342FBD1184A194B23F07F03BA
:1011E0009360EFF31083B3FA83F35B09019372B654
:1011F000BFF35F8F0022134B1A700199124A1368D4
:1012000043F470031360BFF34F8FBFF36F8F29B1A7
:1012100001220C4B1A70BFF35F8F62B60B4B9847DD
:101220000B4B9847FEE700BF00004020486B400092
:10123000D0094020580E4020D009402000ED00E0A9
:10124000000040001800402088ED00E0C936400052
:10125000653540003B4B1B6B03F00303012B1DD096
:1012600083B1022B36D0374B1B6B03F07003702B0E
:101270005FD0344B1A6B3449C2F302120B68D3406F
:101280000B607047314B5B6913F0800F14BF4FF454
:1012900000424FF4FA422C4B1A60E4E7294B1B6AD8
:1012A00013F0807F03D02A4A274B1A60DBE7294AD4
:1012B000254B1A60234B1B6A03F07003102B05D0DB
:1012C000202BD0D1224A204B1A60CCE7224A1E4B59
:1012D0001A60C8E71B4B1B6A13F0807F16D01C4AAC
:1012E000194B1A60174B1B6B03F00303022BBAD187
:1012F000144A916A926A1448C1F30A41036801FBD7
:101300000333D2B2B3FBF2F30360ACE7114A0E4BE6
:101310001A600C4B1B6A03F07003102B05D0202BB6
:10132000E0D10B4A084B1A60DCE70B4A064B1A6007
:10133000D8E7054A13680949A1FB03135B0813604A
:10134000704700BF00060E401C00402010180E40E1
:10135000001BB70000093D0000127A00ABAAAAAA40
:10136000164B984213D9164B984215D9154B9842F3
:1013700016D9154B984217D9144B984218D9144BCB
:10138000984294BF134A144A144B1A6070474FF0A6
:101390008062124B1A607047114A104B1A607047F6
:1013A000104A0E4B1A6070470F4A0C4B1A60704778
:1013B0004FF00422094B1A60704700BFBFF35E0173
:1013C0007FE7BD023FDB1C04FFCE7B05BFC2DA0610
:1013D0007FB639080005000400060004000C0E402A
:1013E0000001000400020004000300040A4B1B6813
:1013F00053B1094B1B681A180849914208DB104683
:10140000054A106018467047054A034B1A60F0E71A
:101410004FF0FF30704700BF680C4020FCFF4520B4
:10142000583040204FF0FF3070474FF400534B606E
:1014300000207047012070470020704700F108032A
:1014400043604FF0FF328260C3600361002303609A
:10145000704700230361704743684B609A688A6055
:101460009A685160996008610368013303607047AE
:1014700030B40D68B5F1FF3F02D000F1080202E080
:10148000026904E01A4653681C68A542FAD2536800
:101490004B6099608A6051600861036801330360A2
:1014A00030BC704703694268816891608268416816
:1014B00051605A68904205D00022026118680138D4
:1014C0001860704782685A60F6E700000D4B1B6891
:1014D000B3F1FF3F0AD04FF0800372B683F3118857
:1014E000BFF36F8FBFF34F8F62B6FEE74FF08003FD
:1014F00072B683F31188BFF36F8FBFF34F8F62B65D
:10150000FEE700BF2000402006480068006880F326
:10151000088862B661B6BFF34F8FBFF36F8F00DFED
:1015200000BF000008ED00E0DFF80C00016841F4A6
:10153000700101607047000088ED00E04FF080739B
:1015400040F8043C40F8081C054B40F80C3C40F8BF
:10155000202C6FF0020340F8243C4438704700BF51
:10156000CD144000064B19680868B0E8F04F80F3CE
:101570000988BFF36F8F4FF0000080F31188704728
:10158000740C4020704700BF4FF0800372B683F3A5
:101590001188BFF36F8FBFF34F8F62B60B4A13688A
:1015A00001331360012B0FD1094B1B6813F0FF0FA0
:1015B0000AD04FF0800372B683F31188BFF36F8FA8
:1015C000BFF34F8F62B6FEE7704700BF2000402098
:1015D00004ED00E00A4B1B6853B94FF0800372B66C
:1015E00083F31188BFF36F8FBFF34F8F62B6FEE7AF
:1015F000013B034A13600BB983F31188704700BFA6
:1016000020004020EFF30980BFF36F8F154B1A685D
:101610001EF0100F08BF20ED108A20E9F04F106077
:101620004DF8043D4FF0800072B680F31188BFF38F
:101630004F8FBFF36F8F62B601F0B8F84FF0000024
:1016400080F3118808BC19680868B0E8F04F1EF0F4
:10165000100F08BFB0EC108A80F30988BFF36F8FBA
:10166000704700BF740C4020704700BF08B5EFF30F
:1016700011834FF0800272B682F31188BFF36F8F2F
:10168000BFF34F8F62B6054B984718B14FF08052A9
:10169000034B1A60002383F3118808BDA92440007E
:1016A00004ED00E0034A044B1A600722043B1A6071
:1016B000704700BFBF27090014E000E000B583B009
:1016C000254B1A78D2B20192FF221A701B78DBB236
:1016D0008DF803309DF8033003F080031F4A137028
:1016E00007221F4B1A609DF8033013F0800F10D0B3
:1016F000062200E00A469DF803305B00DBB28DF85D
:1017000003309DF80330511E13F0800FF2D1144BBB
:101710001A60134A13681B0203F4E0631360019B11
:10172000DBB20D4A13700F4B1A6842F460021A6064
:101730001A6842F060421A600B4B984700220B4B2C
:101740001A600B4B98470B4A136843F040431360F1
:10175000094B9847094B984700E400E06C0C402087
:10176000700C402020ED00E0A51640002000402035
:101770002915400034EF00E009154000CD14400069
:10178000EFF305830F2B11D9124A9B5CDBB2124A8F
:1017900012789A420AD94FF0800372B683F3118807
:1017A000BFF36F8FBFF34F8F62B6FEE70B4B1B6823
:1017B00003F4E0630A4A126893420AD94FF08003A7
:1017C00072B683F31188BFF36F8FBFF34F8F62B68A
:1017D000FEE77047F0E300E06C0C40200CED00E009
:1017E000700C402010B50446064B98472046064B27
:1017F00098470446054B98470CB1204610BD044B52
:101800009847FAE78D24400041374000F525400015
:10181000DF32400048B110B50446044B98472046DB
:10182000034B9847034B984710BD70478D244000E9
:1018300051374000F525400038B504461546026C86
:101840005AB90368002B2ED140681B4B98470023E0
:101850006360A36B0133A36338BD6DB98068174B18
:101860009847A368226C1344A360626893421CD318
:101870002368A3600020ECE7C068104B9847236CF6
:101880005B42E2681A44E26021688A4202D26268DE
:101890001344E360022D0AD1A36B53B1A36B013B48
:1018A000A3630020D5E70020D3E70020D1E7002084
:1018B000CFE70020CDE700BFAD2B4000C13C40008A
:1018C00030B583B00190446D74B1A26BE36B9A4262
:1018D00015D34FF0800372B683F31188BFF36F8F77
:1018E000BFF34F8F62B6FEE74FF0800372B683F30B
:1018F0001188BFF36F8FBFF34F8F62B6FEE7A26B05
:10190000934203D80025284603B030BD0A4601A9FA
:1019100020460B4B98470546A36CB3F1FF3F0AD115
:10192000636A002BEFD004F12400064B984700288F
:1019300018BF0125E7E7A36C0133A364E3E700BF09
:101940003918400081294000026C72B110B503467D
:10195000C4681444C4604068844201D31868D860E5
:101960000846D968014B984710BD7047C13C4000FC
:10197000F8B50446224B9847A36C002B1BDD214D84
:10198000214F224E0BE0636AABB104F12400B04753
:1019900078B9A36C013BA364A36C002B0BDD636DD2
:1019A000002BF0D000212046A8470128F1D1B847EC
:1019B000EFE7B847EDE74FF0FF33A364144B9847C8
:1019C0000F4B9847636C002B14DD236993B104F12E
:1019D00010060E4D0C4F07E0636C013B6364636CB3
:1019E000002B07DD23692BB13046A8470028F3D030
:1019F000B847F1E74FF0FF336364054B9847F8BDF4
:101A000089154000C1184000DD2A400081294000AE
:101A1000D515400038B508B304460D461D4B984710
:101A20002268216CE36B03FB01F3D0186060002097
:101A3000A063A2605B1A1344E3604FF0FF3363645A
:101A4000A364FDB923692BB104F11000124B984730
:101A500001280ED0114B9847012038BD4FF080036C
:101A600072B683F31188BFF36F8FBFF34F8F62B6E7
:101A7000FEE74FF080520A4B1A60BFF34F8FBFF35F
:101A80006F8FE7E704F11000064DA84704F124002A
:101A9000A847DFE78915400081294000D51540009F
:101AA00004ED00E03D144000F8B550B94FF080035C
:101AB00072B683F31188BFF36F8FBFF34F8F62B697
:101AC000FEE7064617460D4689B101FB00F0593086
:101AD000124B98470446E8B94FF0800372B683F37F
:101AE0001188BFF36F8FBFF34F8F62B6FEE75820A8
:101AF0000A4B984704460028EED02060E663256430
:101B000001212046064B984784F8507000236365F6
:101B10002046F8BD00F158030360EFE7E5174000E9
:101B2000151A40002DE9F04F85B00192B8B1044676
:101B300001B3022B2CD01D468846664B98470028DF
:101B400034D1019B002B38D04FF0800372B683F361
:101B50001188BFF36F8FBFF34F8F62B6FEE74FF070
:101B6000800372B683F31188BFF36F8FBFF34F8F7B
:101B700062B6FEE7026C002ADBD04FF0800372B63B
:101B800083F31188BFF36F8FBFF34F8F62B6FEE709
:101B9000E26B012ACFD04FF0800372B683F3118835
:101BA000BFF36F8FBFF34F8F62B6FEE700274A4E39
:101BB000DFF850A1DFF82C9142E00027F7E72A4632
:101BC00041462046454B9847636D9BB129462046C8
:101BD000434B9847012807D14FF08052414B1A6080
:101BE000BFF34F8FBFF36F8F3F4B9847012005B076
:101BF000BDE8F08F636A73B104F124003B4B984752
:101C00000128F1D14FF08052364B1A60BFF34F8F4D
:101C1000BFF36F8FE8E70028E6D04FF08052314BDA
:101C20001A60BFF34F8FBFF36F8FDDE72E4B9847DE
:101C30000020DCE720462E4B98472E4B9847012783
:101C4000B047A26BE36B9A42B9D3022DB7D0019B88
:101C5000002BEBD00FB902A8D047234B9847264B57
:101C60009847B047636CB3F1FF3F01D10023636431
:101C7000A36CB3F1FF3F01D10023A3641A4B984733
:101C800001A902A81D4B9847E0B9B047D4F838B075
:101C9000E76B154B9847BB45CCD1019904F1100077
:101CA000174B98472046124B9847124B98470028ED
:101CB000C5D14FF08053C9F80030BFF34F8FBFF349
:101CC0006F8FBCE720460A4B98470A4B9847002085
:101CD0008DE700BFE92A400089154000391840000F
:101CE000C118400004ED00E0D515400081294000F6
:101CF00071194000F52540008D244000492A40001C
:101D00007D284000192A4000002836D02DE9F041F6
:101D1000044600293CD0022B48D01E461546884672
:101D2000354B9847EFF311874FF0800372B683F37A
:101D30001188BFF36F8FBFF34F8F62B6A26BE36B57
:101D40009A4201D3022E4FD13246414620462B4BB8
:101D50009847A36CB3F1FF3F41D1636D002B33D0A3
:101D600031462046264B9847002D3FD001283DD1D3
:101D7000286087F31188BDE8F0814FF0800372B6C8
:101D800083F31188BFF36F8FBFF34F8F62B6FEE707
:101D9000006C0028BFD04FF0800372B683F3118827
:101DA000BFF36F8FBFF34F8F62B6FEE7E06B012882
:101DB000B3D04FF0800372B683F31188BFF36F8FF7
:101DC000BFF34F8F62B6FEE7636A8BB104F1240064
:101DD0000C4B984775B168B101202860C9E7A36C26
:101DE0000133A3640120C4E70020C2E70120C0E75B
:101DF0000120BEE70120BCE78117400039184000F0
:101E0000C11840008129400070B170B50446036CD0
:101E1000ABB14FF0800372B683F31188BFF36F8FBD
:101E2000BFF34F8F62B6FEE74FF0800372B683F3C5
:101E30001188BFF36F8FBFF34F8F62B6FEE7036861
:101E400033B30D46254B9847EFF311864FF08003CF
:101E500072B683F31188BFF36F8FBFF34F8F62B6F3
:101E6000A26BE36B9A4231D2A36B0133A363A36CE1
:101E7000B3F1FF3F25D1636DC3B100212046184B5C
:101E800098472DB3012823D1286086F3118870BDAF
:101E90004368002BD5D04FF0800372B683F31188CE
:101EA000BFF36F8FBFF34F8F62B6FEE7636A8BB1EC
:101EB00004F124000B4B984775B168B101202860EC
:101EC000E3E7A36C0133A3640120DEE70020DCE735
:101ED0000120DAE70120D8E70120D6E7811740008A
:101EE000C1184000812940002DE9F04784B00192DB
:101EF00098B10446E1B198460F46614B984728BB1C
:101F0000019B53B34FF0800372B683F31188BFF384
:101F10006F8FBFF34F8F62B6FEE74FF0800372B64C
:101F200083F31188BFF36F8FBFF34F8F62B6FEE765
:101F3000026C002ADFD04FF0800372B683F3118861
:101F4000BFF36F8FBFF34F8F62B6FEE700264D4D94
:101F5000DFF860A1DFF83C914BE00026F7E7E56889
:101F600039462046484B9847B8F1000F1DD1A36B66
:101F7000013BA363236813B9444B9847606023690E
:101F80006BB104F11000424B9847012807D14FF084
:101F90008052404B1A60BFF34F8FBFF36F8F3E4BA1
:101FA0009847012004B0BDE8F087E560636A002B24
:101FB000F5D004F12400364B98470028EFD04FF0BD
:101FC0008052344B1A60BFF34F8FBFF36F8FE6E739
:101FD000314B98470020E5E7A84760682F4B9847AA
:101FE0002D4B984730E020462D4B98472D4B984776
:101FF0000126A847A36B002BB1D1019B002BE7D092
:102000000EB902A8D047244B9847274B9847A847BA
:10201000636CB3F1FF3F01D100236364A36CB3F1A0
:10202000FF3F01D10023A3641B4B984701A902A8DD
:102030001E4B9847E8B9A847A66B174B9847002E48
:10204000D1D12368002BC7D0019904F12400184B8B
:1020500098472046124B9847124B98470028C7D103
:102060004FF08053C9F80030BFF34F8FBFF36F8F2D
:10207000BEE720460A4B98470A4B9847002091E755
:10208000E92A40008915400049194000692C4000A8
:102090008129400004ED00E0D5154000092B4000E7
:1020A00071194000F52540008D244000492A400068
:1020B0007D284000192A400010B40B4B1B6853B117
:1020C0000123094C54F8332032B10133082BF9D1E4
:1020D0005DF8044B70470023034A42F8331002EBCB
:1020E000C3035860F4E700BFEC0D402070B5044610
:1020F0000D4616460F4B9847636CB3F1FF3F0BD06C
:10210000A36CB3F1FF3F0AD00B4B9847A36B4BB1C5
:1021100020460A4B984770BD00236364F0E7002314
:10212000A364F1E73246294604F12400044B9847A2
:10213000EEE700BF89154000D51540007119400039
:1021400001294000084B1B681B683BB1064B1B680C
:10215000DB68DB685A68054B1A6070474FF0FF3246
:10216000024B1A60704700BF780C4020240D4020BD
:1021700010B50F4B1B6858600E4B1B6898420ED36E
:1021800004460D4B18680A4B196804310B4B9847ED
:102190000B4B1B689C4201D2094B1C6010BD094BC4
:1021A0001868034B19680431044B984710BD00BFF1
:1021B000740C40206C0D4020780C402071144000BD
:1021C000240D40207C0C40202DE9F04F83B00C9D65
:1021D000DDF834A00E9E60B1042D15D94FF08003B8
:1021E00072B683F31188BFF36F8FBFF34F8F62B660
:1021F000FEE74FF0800372B683F31188BFF36F8F51
:10220000BFF34F8F62B6FEE70190984691460F46A6
:1022100036B99000624B98470646002800F09E8031
:1022200058205F4B98470446002800F094800663CE
:102230004FEA8902A52130465A4B98476FF0404635
:102240004E44236B03EB860323F007063B7884F8A8
:1022500034303B78002B40F08480002784F83D70B8
:10226000E562A564E76404F104094846DFF884B137
:10227000D84704F11800D8472461C5F10503A361CC
:102280006462276584F85470424601993046464B93
:1022900098472060BAF1000F01D0CAF80040434BC4
:1022A0009847434A136801331360424B1B68002B65
:1022B00066D1404B1C601368012B21D13E4F38463C
:1022C0003E4EB04707F11400B04707F12800B04771
:1022D00007F13C00B04707F15000B047DFF8188124
:1022E0004046B047364F3846B0473648B047364884
:1022F000B0473648B047364BC3F80080354B1F60B7
:10230000354A1368013313602364E06A334A116865
:10231000012383400B43136000EB80004946264BAA
:1023200003EB80002E4B98472E4B98472E4B1B6893
:10233000002B31D01F4B1B68DB6A9D422ED94FF01A
:1023400080522A4B1A60BFF34F8FBFF36F8F01206B
:1023500003B0BDE8F08F3046254B98474FF0FF3073
:10236000F6E73B4604F134020937597802F8011FB9
:1023700013F8011F00293FF470AFBB42F5D16CE7A1
:10238000194B1B68002BBBD10A4B1B68DB6A9D42B3
:10239000B6D3084B1C60B3E70120D9E70120D7E78B
:1023A000E5174000F53D40003D154000891540000F
:1023B000E40C4020740C4020800C40203D14400070
:1023C000100D40202C0D4020580D4020440D402081
:1023D000780C40207C0C4020F00C4020F80C402071
:1023E00059144000D5154000400D402004ED00E098
:1023F0001518400053144000FC0C402010B584B068
:10240000002303930293019300934FF40062174952
:102410001748184CA04701280BD020BB4FF0800371
:1024200072B683F31188BFF36F8FBFF34F8F62B61D
:10243000FEE7114B98470128EFD14FF0800372B6A9
:1024400083F31188BFF36F8FBFF34F8F62B64FF0E6
:10245000FF320A4B1A600122094B1A600022094B15
:102460001A60094B984704B010BD00BFEC684000EB
:1024700015274000C9214000552D4000240D402063
:10248000400D40206C0D4020BD164000024A1368EC
:1024900001331360704700BFEC0C4020014B1868FB
:1024A000704700BF6C0D40202DE9F047424B1B6880
:1024B000002B78D1414B1A6801321A601E68D6B9D8
:1024C0003F4B1B681B6853B14FF0800372B683F318
:1024D0001188BFF36F8FBFF34F8F62B6FEE7384AA4
:1024E0001168384B186810601960374A1368013357
:1024F0001360364B9847364B1B689E4218D2002417
:10250000344B1B68DB6A03EB8303334A52F82330F6
:10251000022B28BF0124314B1B680BB9304B984765
:10252000304B1B68002B0CBF20460120BDE8F08714
:102530000024DFF88C90DFF8B8802B4F1FE04FF0BD
:10254000FF32234B1A60DBE7214A1360D8E705F11D
:102550001800C047E86A3A680123834013433B6090
:1025600000EB800051461C4B03EB80001F4B98474B
:10257000184B1B68EA6ADB6A9A4228BF0124D9F823
:1025800000301B68002BDAD0D9F80030DB68DD683A
:102590006B689E42D8D305F1040A5046C047AB6A27
:1025A000002BD4D1D6E70D4A1368013313600C4BCE
:1025B00098470024B4E700BFEC0C40206C0D40208D
:1025C000780C40207C0C4020280D40204521400004
:1025D000240D4020740C4020800C4020E80C40204A
:1025E000DD324000700D4020F80C402059144000AE
:1025F000A51440002DE9F843384B1B6853B94FF040
:10260000800372B683F31188BFF36F8FBFF34F8FD0
:1026100062B6FEE7324B9847304B1A68013A1A60AF
:102620001B68002B55D12F4B1B68002B32D1002487
:102630002D4B98472046BDE8F883FB68DC6804F121
:102640001800B04704F104084046B047E06A2A6821
:102650000123834013432B6000EB8000414609EBCC
:102660008000224B9847224B1B68E26ADB6A9A4241
:102670000CD23B68002BE0D11E4B1B68DBB11D4B1D
:102680001B68C3B11C4E1D4D1A4C0EE001221B4BA2
:102690001A60EEE71A4F1B4E1B4DDFF87490E8E707
:1026A0002368013B236023682BB1B0470028F7D093
:1026B00001232B60F4E7114B1B68012B0BD14FF06A
:1026C0008052124B1A60BFF34F8FBFF36F8F0124FC
:1026D000AEE70024ACE70024AAE700BFEC0C4020E2
:1026E00089154000E40C4020D515400059144000E5
:1026F000740C4020E80C4020A9244000700D4020BC
:102700002C0D4020A5144000F80C402004ED00E002
:10271000800C402080B5DFF88880194EDFF8849067
:102720002AE0184B1B68012B1ED82B68002BF8D011
:10273000C0473468B847002CF7D0134B9847F3686C
:10274000DC68201D114B9847114A1368013B136048
:102750002B68013B2B600F4B9847206BDFF848A09C
:10276000D0472046D047E0E74FF08053C9F800300B
:10277000BFF34F8FBFF36F8F074D084FD5E700BFF3
:10278000580D4020800C402089154000A5144000C1
:10279000E40C4020D5154000F40C4020F525400005
:1027A0008D24400004ED00E0151840002D4B1B68FF
:1027B000002B2CD110B500222B4B1A602B4B1B6821
:1027C0001B6B1A68B2F1A53F03D15A68B2F1A53F5D
:1027D00021D0264B186819683431254B9847254B72
:1027E0001B68B3FA83F3DBB2C3F11F0303EB83016E
:1027F000214A52F82120BAB94FF0800372B683F310
:102800001188BFF36F8FBFF34F8F62B6FEE70122CF
:10281000154B1A6070479A68B2F1A53FD9D1DB68B1
:10282000B3F1A53FD5D1DAE7134A9900C81802EBF6
:102830008000446864684460194402460832944247
:1028400009D003EB83030C4A02EB83035B68DA686D
:10285000064B1A6010BD6068074A02EB81025060A7
:10286000EFE700BFEC0C4020700D4020740C4020BE
:10287000C9324000F80C4020800C402038B5E0B14F
:102880000C46174D29681831164B984728680430B4
:10289000154B984740B92A6814490B68D06A012241
:1028A000824023EA02030B60B4F1FF3F10D0104BCB
:1028B000186820440F4B984738BD4FF0800372B61C
:1028C00083F31188BFF36F8FBFF34F8F62B6FEE7BC
:1028D000034B196804310848084B984738BD00BFBE
:1028E000740C402071144000A5144000F80C4020E6
:1028F0006C0D402071214000440D402059144000CF
:10290000E8B170B515460C46164E31681831164BB5
:10291000984730680430154B984740B932681449DD
:102920000B68D06A0122824023EA02030B60012D6A
:1029300010D0104B186820440F4B984770BD4FF0D3
:10294000800372B683F31188BFF36F8FBFF34F8F8D
:1029500062B6FEE7034B196804310848024B9847FA
:1029600070BD00BF740C402059144000A5144000F5
:10297000F80C40206C0D402071214000440D402097
:1029800038B5C368DC6824B304F1180528461A4B2F
:1029900098471A4B1B683BBB251D2846164B98478A
:1029A000E06A174A1168012383400B43136000EB70
:1029B00080002946134B03EB8000134B9847134BC1
:1029C0001B68E26ADB6A9A4213D90120104B186037
:1029D00038BD4FF0800372B683F31188BFF36F8F59
:1029E000BFF34F8F62B6FEE729460A48064B984769
:1029F000E5E7002038BD00BFA5144000EC0C4020E6
:102A0000F80C4020800C402059144000740C4020E9
:102A1000700D40202C0D402030B1094A1268026030
:102A2000084A1268426070474FF0800372B683F321
:102A30001188BFF36F8FBFF34F8F62B6FEE700BF01
:102A4000280D40206C0D402038B5C0B1044609B3B4
:102A50000D461D4B98471D4B1A682B68B3F1FF3F7D
:102A60002ED01B4909682068884202D061688A42DA
:102A700028D26168501A834217D801241CE04FF015
:102A8000800372B683F31188BFF36F8FBFF34F8F4C
:102A900062B6FEE74FF0800372B683F31188BFF38E
:102AA0006F8FBFF34F8F62B6FEE79B1A0B442B600C
:102AB0002046084B98470024074B9847204638BDCE
:102AC0000024F9E70124F7E7891540006C0D402048
:102AD000280D4020192A4000D51540000122014B45
:102AE0001A607047700D4020054B1B6833B1054BD1
:102AF0001B68002B0CBF022000207047012070478C
:102B0000400D4020EC0C4020002844D038B504464D
:102B1000C26A21490968C96A8A4214D281690029B6
:102B200005DB1D490968C96AC1F10501816102EB34
:102B300082021A4901EB82026169914204D0164A6D
:102B40001268D26AE26238BD251D2846144B9847A8
:102B500070B9E36A03EB8301104A52F821203AB9B5
:102B600010480268012101FA03F322EA030303601B
:102B7000094B1B68D86AE0620A4A11680123834046
:102B80000B43136000EB80002946044B03EB8000ED
:102B9000054B984738BD7047740C4020800C40208E
:102BA000A5144000F80C40205914400000284DD0D6
:102BB00038B50446274A126890420AD04FF0800385
:102BC00072B683F31188BFF36F8FBFF34F8F62B676
:102BD000FEE7C26C52B94FF0800372B683F31188DE
:102BE000BFF36F8FBFF34F8F62B6FEE7013AC26447
:102BF000C06AA16C88422BD052BB251D2846164BBB
:102C0000984768B9E16A01EB8102144B53F822300E
:102C100033B91348036801228A4023EA02030360A0
:102C2000A06CE062C0F10503A3610D4A11680124A4
:102C300004FA00F30B43136000EB80002946074BB6
:102C400003EB8000074B9847204638BD00207047B3
:102C5000002038BD740C4020A5144000800C40209A
:102C6000F80C402059144000054B1B6823B1044B5D
:102C70001A68D36C0133D364014B1868704700BFE6
:102C8000740C402008B54160006191420CD8D21A02
:102C900083699A4201D3012008BD011D094B1868C0
:102CA000094B9847002008BD9A4203D2994201D3AC
:102CB000012008BD011D054B1868034B98470020F3
:102CC00008BD00BF780D402071144000740D4020F5
:102CD00070B5154B9847154B1B6813B1144B9847AB
:102CE00070BD144D2846144EB047144C2046B047D2
:102CF000134B1D60134B1C60002210210520124B4A
:102D000098470A4B186018B11049114B9847E5E7EE
:102D10004FF0800372B683F31188BFF36F8FBFF358
:102D20004F8F62B6FEE700BF89154000A80D402016
:102D3000D51540007C0D40203D144000900D4020F2
:102D4000740D4020780D4020A91A4000F46840001E
:102D5000B920400010B584B00F4B98470F4B1B684B
:102D600073B10023039302930193042200924FF462
:102D700080520B490B480C4CA04708B104B010BD61
:102D80004FF0800372B683F31188BFF36F8FBFF3E8
:102D90004F8F62B6FEE700BFD12C4000A80D402047
:102DA000FC684000D52E4000C9214000D8B130B5A4
:102DB00085B015460446154A106820B31A4600919E
:102DC00001950294052919DC114B984702284FF010
:102DD00000030CBF089A1A4669460C4800680D4C5F
:102DE000A04705B030BD4FF0800372B683F3118861
:102DF000BFF36F8FBFF34F8F62B6FEE700236946C4
:102E0000054CA047EDE70020EBE700BFA80D4020F0
:102E1000E92A4000251B4000091D40002DE9F0472C
:102E200082B08046244B98470746244B1B68984243
:102E30001BD30023C8F80030204B1F60384602B077
:102E4000BDE8F087002100910B46524620461C4CFD
:102E5000A04760B94FF0800372B683F31188BFF3C7
:102E60006F8FBFF34F8F62B6FEE7164D164E2B687D
:102E70001A68C2B1DB68D3F800A0DC6804F1040969
:102E80004846B047636A20469847E369012BEED174
:102E9000A36953449A45D5D26360246149462868A2
:102EA0000A4B9847E3E70A4A10680649086013602E
:102EB0000123C8F80030BFE79D244000A40D402046
:102EC000AD2D4000740D4020A51440007114400049
:102ED000780D40202DE9F04788B0754E754FDFF82A
:102EE000FC91DFF8FC8133681A68002A00F0CE807C
:102EF000DB681C68B84704A86F4B98470546049BDD
:102F0000002B44D1A04212D20022611B6B4B1868E7
:102F10006B4B98476B4B984700283AD14FF0805342
:102F2000C9F80030BFF34F8FBFF36F8F31E0654BAF
:102F300098473368DB68D3F80CA00AF10400C04757
:102F4000DAF81C30012B04D0DAF8243050469847C8
:102F50001FE0DAF8181023462A46214450465A4DFD
:102F6000A8470128F0D1002100910B462246504687
:102F7000564CA0470028E7D14FF0800372B683F388
:102F80001188BFF36F8FBFF34F8F62B6FEE74D4BD3
:102F900098474A4D4E4C06E007990698059B98477E
:102FA000049B002B09DA00231A4604A92868A047CD
:102FB000002898D0049B002BEEDBDDF818A0DAF88F
:102FC000143013B10AF10400C04703A83A4B9847E4
:102FD000049B092BE7D801A252F823F005304000EA
:102FE0000530400005304000A72F40005930400018
:102FF000853040000530400005304000A72F4000DC
:1030000059304000059CDAF8181023460246214446
:1030100050462D4CA0470128BCD1DAF82430504648
:103020009847DAF81C30012BB4D1DAF818200021C7
:1030300000910B46059802445046244CA0470028B6
:10304000A8D14FF0800372B683F31188BFF36F8F5E
:10305000BFF34F8F62B6FEE70599CAF8181031B179
:103060000346024601445046174CA04792E74FF0F2
:10307000800372B683F31188BFF36F8FBFF34F8F56
:1030800062B6FEE75046134B984783E7B84704A85B
:10309000094B98470546049B002B7FF478AF0E4BF5
:1030A0001B681A68B2FA82F2520900242DE700BFA9
:1030B000740D40208D2440001D2E4000A80D40209E
:1030C000ED204000F5254000852C4000AD2D40004E
:1030D000E91E400015184000780D402004ED00E086
:1030E000A514400008B5074B9847074D2B46002212
:1030F00011460648064CA0472B46142200210548DD
:10310000A047FEE7DD0640000C0040208C6940002F
:10311000450640009C694000F0B583B005460C466A
:10312000002301932A4B984213D02A4B984218D07F
:10313000294B98421DD0294B9D4222D0284B9D42BD
:1031400027D0284B9D422ED0274B9D4235D003B02F
:10315000F0BD1F46254E21463846B0470028FAD11B
:10316000E9E71F46214E21463846B0470028FAD1EC
:10317000E4E71F461D4E21463846B0470028FAD1E5
:10318000DFE71F46194E21463846B0470028FAD1DE
:10319000DAE71E46164D01A93046A8470028FAD1A5
:1031A000019B2370D3E71E46114D01A93046A84765
:1031B0000028FAD1019B2370C9E71E460C4D01A9D6
:1031C0003046A8470028FAD1019B2370BFE700BF13
:1031D00000080E40000A0E40001A0E40001C0E406F
:1031E000004002400080024000C0024067104000E2
:1031F0007311400070B50C462A4B984213D02A4BED
:10320000984219D0294B98421FD0294B984225D07B
:10321000284B98422BD0284B984231D0274B9842CC
:1032200037D0002070BD1E46254D21463046A847A8
:103230000028FAD1012070BD1E46214D214630469E
:10324000A8470028FAD1012070BD1E461C4D21461A
:103250003046A8470028FAD1012070BD1E46184DFF
:1032600021463046A8470028FAD1012070BD1E46ED
:10327000144D21463046A8470028FAD1012070BDE0
:103280001E46104D21463046A8470028FAD101209D
:1032900070BD1E460B4D21463046A8470028FAD186
:1032A000012070BD00080E40000A0E40001A0E40BA
:1032B000001C0E40004002400080024000C002405E
:1032C000551040005D11400008B50248024B984778
:1032D000FEE700BFA06940001937400070474FF07B
:1032E000800372B683F31188BFF36F8FBFF34F8FE4
:1032F00062B6FEE738B504460D46064B984720B93E
:1033000029462046044B984738BD29462046034BA2
:10331000984738BD190E4000910C4000950C4000B4
:103320002DE9F04385B006460C46174698460846F8
:103330001C4B98471C4D009502AB03AA29464046FA
:10334000DFF88090C847029A42F4804239463046FE
:10335000164B9847039AB5FBF2F2B2FBF8F23946E6
:103360003046134B984763B2002B13DB114A802180
:10337000D1545B0904F01F04012202FA04F40E4A3E
:1033800042F823401022394630460C4B984705B08E
:10339000BDE8F08304F00F01094A0A448021117648
:1033A000E7E700BF0110400000A3E111BB034000AC
:1033B000DD03400000E400E000E100E0E503400040
:1033C000FCEC00E0F503400000B583B001210548A6
:1033D000054B9847019001210448054B984703B0DD
:1033E0005DF804FB00C00040ED034000000E0E40FD
:1033F000F532400010B582B004460A20054B9847CC
:1034000000230093224601210348044CA04702B048
:1034100010BD00BF01104000000E0E40610D4000C5
:1034200008B50020064B9847064C042301221821BA
:103430002046054DA84701212046044B9847FEE74A
:10344000F533400000C0004021334000D503400068
:1034500010B582B004460C20054B9847002300931A
:1034600022464FF080410348034CA04702B010BDF4
:103470000110400000120E40610D400080B5002098
:103480001E4B9847DFF89C801D4FDFF89C9023E08F
:1034900004F1280140461B4B98471B4B0822C3F8F8
:1034A0008020C3F88021802183F803131A604FF431
:1034B00080314046154B9847154E0025154C2B463C
:1034C0004FF47A7229463068A0470128F7D14FF0AF
:1034D00080414846104B9847002140460F4B984783
:1034E00040F6CC4140460E4B98474046B84704460C
:1034F0004046B8478442FBD0CAE700BF5134400081
:10350000150240002D02400000E100E0ED01400006
:103510002C0E4020E91E4000F5324000C101400061
:10352000AD01400030180E4000120E4000B583B0CF
:103530000848094B984710F0010F02D103B05DF81D
:1035400004FB02A9002341F8043D044B1868044B16
:103550009847F3E730180E40290240002C0E402017
:10356000091E400000B58BB0394B9847394B98473E
:10357000394D3A4B1D603A4A3A4B1A603A4A3B4B36
:103580001A604FF4E1330493C02305934FF40063B2
:1035900006930024079408940E20354B9847354A2B
:1035A00004A92846344B98472846344B9847284668
:1035B000334B9847334E336821469868324DA847BD
:1035C000336821465868A847336821469868A84759
:1035D0000322214601202D4B98472D4B18600028CF
:1035E00032D0002303930293019300934FF4C062FF
:1035F00028492948294CA047012802D02848294BAE
:103600009847002303930293019300934FF4806241
:1036100025492648214CA047012802D02448214BA7
:103620009847002303930293019300934FF4806221
:1036300020492148194CA047012802D01F48194BA6
:1036400098471F4B9847FEE71E48164B9847C8E718
:10365000FD094000F90A400000800240E80D4020CA
:10366000F5314000E40D402019314000E00D4020CC
:103670000110400080D1F008FD10400051114000C1
:103680005711400024004020CD3E4000A91A4000C0
:103690002C0E402024694000E5304000C921400044
:1036A0002C694000193740004C694000213440002B
:1036B000506940006C6940007D34400070694000F2
:1036C000FD2340000469400070B50F4E0F4D761B7E
:1036D000B61018BF002405D0013455F8043B9847B4
:1036E000A642F9D10A4E0B4D761B03F017FAB6101D
:1036F00018BF002406D0013455F8043B9847A64271
:10370000F9D170BD70BD00BF286B4000286B400030
:10371000306B4000286B40000FB400B5074983B000
:1037200004AB086853F8042B8168019300F056FD40
:1037300003B05DF804EB04B0704700BF24004020E4
:10374000024B0146186800F00BB800BF240040206F
:10375000024B0146186801F05DBE00BF2400402006
:103760002DE9F04F01F10B06162E83B0054640F20D
:103770009E8036F0070600F1BD80B14200F2BA80AB
:1037800000F086FBB6F5FC7FC0F09382730A00F070
:10379000B880042B00F27981B30903F1390003F1F9
:1037A000380EC300BF4F3B44A3F108015C68A1423F
:1037B00006D10CE0002A80F2AA80E468A14206D07B
:1037C000636823F003039A1B0F2AF3DD70463C69FC
:1037D000DFF8E4E2744500F0AB81636823F0030393
:1037E0009A1B0F2A00F39081002AC7F814E0C7F84B
:1037F00010E080F29D80B3F5007F80F06181DB08EE
:1038000003F1010C99107A6857F83C80C4F80880DD
:1038100001238B4007EBCC0113430839E1607B6047
:1038200047F83C40C8F80C408210012494409C4268
:1038300000F28B801C4206D120F0030064001C4281
:1038400000F10400FAD007EBC009CC468046DCF852
:103850000C309C4507D16DE1002A80F27B81DB684A
:103860009C4500F06781596821F003018A1B0F2AEB
:10387000F2DDD3F80CC0D3F8088000939C192846D9
:1038800046F0010642F001055E60C8F80CC0CCF8B5
:1038900008807C613C61C4F80CE0C4F808E0656015
:1038A0005A5000F0FBFA009B03F108041EE01029B7
:1038B00020D800F0EDFA102618230220794F3B445F
:1038C000A3F108025C68944200F03D816368E168FE
:1038D000A66823F00303234428465A68F16042F0A7
:1038E00001028E605A6000F0D9FA0834204603B015
:1038F000BDE8F08F00240C2320462B6003B0BDE808
:10390000F08F40204FF400734FF03F0E4AE72344FE
:10391000E1685A68A66842F00102F16028468E60AC
:103920005A6000F0BBFA0834204603B0BDE8F08FBF
:10393000234428465A6842F001025A6000F0AEFA69
:103940000834204603B0BDE8F08FBC68636823F0FC
:103950000308B04504D3A8EB06030F2B00F38580C2
:10396000DFF85891504BD9F800201B6801323344DE
:1039700004EB080A00F0558103F580530F3323F45C
:103980007F6B2BF00F0B5946284600F08DFA411C37
:10399000024600F0FC80824500F2F780434B196834
:1039A0005944196000F04D81D9F8000001301BBF67
:1039B000A2EB0A0A5144C9F80020196012F007016D
:1039C00000F01581C1F10800C1F5805102440831B1
:1039D00002EB0B09C9F30B09A1EB0909494628467B
:1039E0000193009200F060FA431C9DE80C0000F087
:1039F0004381801A484440F001001968BA60494484
:103A0000BC425060196017D0B8F10F0F40F2FB8034
:103A10006068A8F10C0222F0070204EB020E00F02D
:103A200001004FF0050C10430F2A6060CEF804C06F
:103A3000CEF808C000F217811D4BBC681A6891428D
:103A400088BF19601B4B1A689142626888BF196071
:103A500022F003029642A2EB060301D80F2B04DCEE
:103A6000284600F01BFA002440E7A21943F00103A6
:103A700046F0010666602846BA60536000F00EFA10
:103A80000834204603B0BDE8F08F142B71D9542BB5
:103A900000F2A380330B03F16F0003F16E0EC3003D
:103AA00080E600BF50044020DC0D4020AC0D4020DB
:103AB000D40D4020D80D4020580440205808402004
:103AC0005A0A042A5BD9142A00F2AE8002F15C0182
:103AD000C9005B3207EB010C7958ACF1080C8C453E
:103AE00000F088804A6822F00302934273D289680A
:103AF0008C45F7D1DCF80C207B68E260C4F808C084
:103B00009460CCF80C408FE6A11946F0010C42F00D
:103B10000106C4F804C0284679613961C1F80CE097
:103B2000C1F808E04E60E25000F0B8F90834DDE674
:103B30007B6879E608F1010818F0030F0CF1080C16
:103B40007FF485AE2DE0DC68A34208BF02303FF46D
:103B50003EAEBBE619441C464A68DB6854F8086F61
:103B600042F001024A602846F3609E6000F096F938
:103B7000BCE603F15C0003F15B0EC30012E69A0998
:103B800002F13901C9003832A4E7BC4254D0BC6804
:103B9000626822F003025DE759F80839994540F060
:103BA000868010F0030F00F1FF30F5D17B6823EA27
:103BB00004037B6064009C423FF6C7AE002C3FF4D8
:103BC000C4AE1C4240467FF43EAE64001C4200F18D
:103BD0000400FAD037E68C468CE7B3F5AA7F15D8F7
:103BE000F30B03F1780003F1770EC300DAE54FF42D
:103BF0008051EDE67B689210012101FA02F2134335
:103C00007B60624679E70123536029E740F2545212
:103C1000934222D8B30C03F17D0003F17C0EC30064
:103C2000C0E503F1100BAEE6542A29D81A0B02F1B5
:103C30006F01C9006E324DE7204B19685944196075
:103C4000B2E6CAF30B0000287FF4AEAE08EB0B031C
:103C5000BA6843F001035360EEE67F204FF47E73B1
:103C60004FF07E0E9EE504F108012846009301F016
:103C7000D1FB009B1968DFE601204FF00009BCE68C
:103C8000B2F5AA7F05D8DA0B02F17801C9007732C4
:103C900020E740F254518A4205D89A0C02F17D0186
:103CA000C9007C3216E74FF47E717E2212E77B68F2
:103CB00080E7F00806F1080300E600BFAC0D4020E5
:103CC000844641EA000313F003036DD1403A41D327
:103CD00051F8043B40F8043B51F8043B40F8043BE6
:103CE00051F8043B40F8043B51F8043B40F8043BD6
:103CF00051F8043B40F8043B51F8043B40F8043BC6
:103D000051F8043B40F8043B51F8043B40F8043BB5
:103D100051F8043B40F8043B51F8043B40F8043BA5
:103D200051F8043B40F8043B51F8043B40F8043B95
:103D300051F8043B40F8043B51F8043B40F8043B85
:103D400051F8043B40F8043B51F8043B40F8043B75
:103D5000403ABDD2303211D351F8043B40F8043B15
:103D600051F8043B40F8043B51F8043B40F8043B55
:103D700051F8043B40F8043B103AEDD20C3205D325
:103D800051F8043B40F8043B043AF9D2043208D01D
:103D9000D2071CBF11F8013B00F8013B01D30B888F
:103DA00003806046704700BF082A13D38B078DD06D
:103DB00010F003038AD0C3F10403D21ADB071CBF3F
:103DC00011F8013B00F8013B80D331F8023B20F8A9
:103DD000023B7BE7043AD9D3013A11F8013B00F8E2
:103DE000013BF9D20B7803704B7843708B7883706A
:103DF0006046704770B4860746D0541E002A41D0F2
:103E0000CAB2034602E014F1FF343BD303F8012B9E
:103E10009D07F8D1032C2ED9CDB245EA05250F2CEC
:103E200045EA054519D903F110022646103E0F2E2A
:103E300042F8105C42F80C5C42F8085C42F8045C02
:103E400002F11002F2D8A4F1100222F00F0204F0E5
:103E50000F041032032C13440DD91E462246043A97
:103E6000032A46F8045BFAD8221F22F00302043228
:103E7000134404F003042CB1C9B21C4403F8011B21
:103E80009C42FBD170BC704714460346C2E700BF9A
:103E9000014801F059BD00BF400E4020014801F02B
:103EA00055BD00BF400E402038B5074C00230546E5
:103EB00008462360FDF79AFA431C00D038BD2368FA
:103EC000002BFBD02B6038BD540E402000290CBFC6
:103ED000022200224FF4806300F000B82DE9F04385
:103EE000614C256883B004460F4690461E4615B1C6
:103EF000AB6B002B64D0B8F1020F06D0B8F1010F04
:103F000000F29F80002EC0F29C80636ED80734D5EB
:103F10002146284601F000F9216B41B104F140032C
:103F2000994202D0284601F075FA00232363B4F9C0
:103F30000C300022A26162601A063AD423F44A636C
:103F400023F00303B8F1020FA3811DD001AB6A4631
:103F50002146284601F0FCFCA3891843A081002ECD
:103F600032D1009E3046FFF7EBFB074600286BD0AE
:103F7000A38943F08003A38128E0A3899905C7D4CE
:103F8000A06D01F0E1FCC3E70025616E002604F19D
:103F9000430243F002030120A660CE07A381226002
:103FA0002261606101D498053ED5284603B0BDE882
:103FB000F0832169284601F02DFAB4F90C30BDE7F1
:103FC000284601F001F996E7002FCBD0AB6B002B10
:103FD00033D0009BB4F90C2027609E421CBF42F4F2
:103FE0000062A281B8F1010F04BF42F00102A28178
:103FF00092B212F00803276166610ED0D1071AD57C
:10400000656E7642002315F00105A661A36009D014
:104010000025284603B0BDE8F083A360656E15F067
:104020000105F5D19305C0D4A06D01F08FFC2846A1
:1040300003B0BDE8F083A660F0E7284601F0C4F8BD
:10404000C7E74FF0FF35B0E7DDF80090B14504D089
:104050004846FFF775FB074620B9B4F90C304FF01E
:10406000FF3592E74E4683E7240040200000000021
:104070000000000000000000000000000000000040
:1040800090F800F06DE9024520F007016FF0000C98
:1040900010F0070491F820F040F049804FF0000440
:1040A0006FF00700D1E9002391F840F000F108001B
:1040B00082FA4CF2A4FA8CF283FA4CF3A2FA8CF353
:1040C0004BBBD1E9022382FA4CF200F10800A4FABA
:1040D0008CF283FA4CF3A2FA8CF3E3B9D1E904230E
:1040E00082FA4CF200F10800A4FA8CF283FA4CF345
:1040F000A2FA8CF37BB9D1E9062301F1200182FAFF
:104100004CF200F10800A4FA8CF283FA4CF3A2FA04
:104110008CF3002BC6D0002A04BF04301A4612BA12
:10412000B2FA82F2FDE8024500EBD2007047D1E915
:10413000002304F00305C4F100004FEAC50514F0A4
:10414000040F91F840F00CFA05F562EA05021CBF75
:1041500063EA050362464FF00004A9E72DE9F84F32
:104160004B6E9C0493462FD59368126853B30E464A
:10417000074602F1080919E920045FEA9A0817D0F6
:10418000043D002401E0A04510D0324655F8041F3C
:10419000384601F0BBF8431C04F10104F3D10023BD
:1041A000CBF80830CBF80430BDE8F88FDBF80830E6
:1041B0002AF0030AA3EB0A03CBF8083009F1080937
:1041C000002BD8D10020EAE701F00AFA0023CBF84F
:1041D0000830CBF80430BDE8F88F00BF2DE9F04F70
:1041E000ADB01D468B4690460793069018B1836B81
:1041F000002B00F0F380DBF86430BBF90C00DF0724
:1042000081B202D48E0540F1FC808C040AD4DBF824
:10421000643040F4005123F40053ABF80C10CBF899
:10422000643089B2080740F1B380DBF81030002B0E
:1042300000F0AE8001F01A030A2B00F0B5800023D5
:104240000DF170090B93119310930393CDF83C90EB
:10425000CA46CDF810B098F800304446FBB1252B83
:1042600002D11CE0252B03D014F8013F002BF9D11B
:10427000A4EB08059DB1109B119ACAF80080013388
:104280002A44072BCAF80450119210937ADD002AB1
:1042900040F0B084039B10922B44CA4603932378CA
:1042A000002B00F0E08300204FF000038DF8373042
:1042B00004F1010862780546064603464FF0FF34D4
:1042C00008F10108A2F12001582900F2DE82DFE89E
:1042D00011F02102DC02DC022902DC02DC02DC0239
:1042E000DC02DC02DC0289029502DC02A200BD02D3
:1042F000DC029F01A401A401A401A401A401A40162
:10430000A401A401A401DC02DC02DC02DC02DC0268
:10431000DC02DC02DC02DC02DC02B201DC02DC02D8
:10432000DC02DC02DC02DC02DC02DC02DC02DC029D
:104330009701DC02DC02DC02DC02DC029B01DC0215
:10434000DC025302DC02DC02DC02DC02DC02DC0206
:10435000DC02DC02DC02DC025A021B02DC02DC02B0
:10436000DC026E021B02DC02DC027302DC02F501DD
:1043700082010902D702DC029A02DC02A700DC02F9
:10438000DC022E020AF1080A039B2B44039386E702
:104390005946069800F0ACFD18BBBBF80C1001F0B4
:1043A0001A030A2B7FF44BAFBBF90E30002BFFF63C
:1043B00046AFDBF86430DB0705D48F0503D4DBF8A8
:1043C000580001F0C3FA2B4642465946069800F0C1
:1043D0004DFD039003982DB0BDE8F08F00F0F4FE82
:1043E00009E7DBF86430D90704D4BBF80C309A0530
:1043F00040F1AA844FF0FF33039303982DB0BDE83A
:10440000F08FDBF8580001F09FFABBF90C0081B285
:10441000FBE67642079243F0040398F800204FE74A
:1044200008969E0600F150840799DD060A4600F1C1
:10443000EF83580640F1EC830E88043100270122F7
:1044400007914FF000018DF837100025611C00F036
:10445000168123F08001029156EA070140F0148191
:10446000002C40F05C83002A40F0B78313F0010376
:10447000059300F057840DF1B00B30230BF8413D4C
:10448000059BA342B8BF234601930DB101330193AD
:10449000029B13F00203099302D0019B02330193A4
:1044A000029B13F084030A9340F01782089B019A41
:1044B0009D1A002D40F31182102D40F39084109B23
:1044C000119AC44ED6461027A2461946069C07E00C
:1044D00001F1020C0EF1080E0146103D102D11DD08
:1044E000481C1032072811928EE8C0001090EFDDB2
:1044F000002A40F0E481103D102D11464FF0010CD0
:10450000CE46EDDC54466146F2462A440729119214
:10451000CAF80060CAF80450109100F3EC829DF8CC
:1045200037500AF1080A481C002D40F0DE81099B33
:10453000002B00F0F88102320EA902230728119205
:1045400010908AE80A0040F3EA81002A40F08C8348
:104550000A9B802B4FF001001146CA4640F0E781CC
:10456000089B019D5E1B002E40F3E181102E9A4DA9
:1045700040F35084D4461027A246069C07E001F180
:10458000020E0CF1080C0146103E102E11DD481CE5
:104590001032072811928CE8A0001090EFDD002A5D
:1045A00040F09D82103E102E4FF0010E1146CC4679
:1045B000EDDC5446E2463244BEF1070F11928AE820
:1045C0006000CDF840E000F369830AF1080A0EF1BB
:1045D00001007146ABE1089613F0200240F08C8395
:1045E00013F0100140F01A8313F0400200F016831C
:1045F00007980A460146043106880791002720E7FC
:10460000089643F01003E7E7089643F0100308E725
:1046100043F0800398F8002052E6A2F13001002612
:1046200018F8012B06EB860601EB4606A2F13001D5
:104630000929F5D946E60896002840F0088443F099
:1046400010039E0600F14C83DD0600F1F38258064C
:1046500040F1F082079DB5F900602A46F717043251
:10466000304639460792002871F10002C0F25D839E
:10467000611C9DF837504FF001027FF4EAAE56EA14
:10468000070100F04D820293012A00F08C82022A79
:1046900040F05C820B98CB46330906F00F0143EAE9
:1046A00007733A091E461746435C0BF8013D56EA6C
:1046B0000703F1D1A9EB0B030593E1E6002840F0D5
:1046C000C083990600F16783DA0600F1F1805B068A
:1046D00040F1EE80079A136804320792BDF80C206F
:1046E0001A80B8E507983D4A08960B92066878222A
:1046F000302104308DF8392043F002030790002761
:104700008DF8381002229CE60896002899D08DF882
:10471000375096E798F80020002D7FF4D1AD0120A6
:104720002025CDE543F0010398F80020C8E5089660
:10473000002840F0938329490B919F0600F1E882FD
:104740000798DE06014600F170825D0640F16D8239
:104750000431068807910027D80740F1228256EAE3
:10476000070100F01E8230218DF8392043F002034A
:104770008DF83810022264E60896002840F06B831A
:1047800017490B91D9E7079908960A688DF84820D0
:104790004FF000000A468DF83700043201200190E6
:1047A000079205900DF1480B0293002470E643F048
:1047B000400398F8002083E598F800206C2A03BF96
:1047C00098F8012043F0200308F1010843F010039A
:1047D00076E500BFE8694000F8694000CC69400018
:1047E000B869400007990E680A46002E02F10402DB
:1047F000FFF60FAE079298F8002061E598F80020C8
:1048000001202B255CE507990896D1F800B04FF000
:1048100000028DF837200E1DBBF1000F00F0E5827D
:10482000671C00F0C482224600215846019301F023
:104830001FF9019B002800F0E582A0EB0B02059216
:10484000079602939DF83750002419E698F8002047
:104850002A2A08F1010700F0E982A2F130010929B2
:10486000B8464FF000043FF62DAD18F8012B04EBCD
:10487000840401EB4404A2F130010929F5D921E5B2
:1048800043F0200398F800201AE50896002840F02D
:10489000DB82002A00F0E78001218DF848204FF0EC
:1048A000000201918DF8372005910DF1480B7BE74F
:1048B000079A136804320792039A1A60CBE40FAA8E
:1048C00004992046FFF74AFC002840F039811099EE
:1048D000119A01F1010CCE46FFE51099119A481C7E
:1048E0009DF83750002D3FF422AE01320DF137050F
:1048F0000121072811921090CAF80050CAF804103C
:1049000040F30881002A40F0BC81099B002B3FF452
:104910001FAE0EAB022208461C931D92CA460146EA
:104920000AF1080A01300A9B802B3FF419AE059B5F
:10493000E41A002C2EDD102CB34D1EDDD6461026B9
:10494000069FDDF810A006E0881C0EF1080E19463F
:10495000103C102C10DD4B1C1032072B11928EE8EE
:1049600060001093F0DD002A65D1103C102C4FF050
:1049700001001146CE46EEDCF24622440728119291
:10498000CAF80050CAF80440109000F385800AF17C
:10499000080A01300599CAF800B00A4407281192A4
:1049A000CAF80410109040F38280002A40F0188169
:1049B000029B1092580735D5089B01995C1A002C70
:1049C00040F3E780CA46102C40F3188210998F4EAE
:1049D000069FDDF810B0102506E0881C0AF1080AD1
:1049E0001946103C102C11DD4B1C1032072B119274
:1049F000CAF80060CAF804501093EEDD42BB103CC8
:104A0000102C4FF001001146CA46EDDC2244072865
:104A10001192CAF80060CAF80440109051DD002AD3
:104A200040F09B81039B089A01998A42ACBF9B1876
:104A30005B1803934EE00FAA51463846FFF78EFBF2
:104A4000002840F03F811099119A481CCE467FE71C
:104A50000FAA59463846FFF781FB60B91099119AA1
:104A6000481CCA46BDE7119BDDF810B0002B40F092
:104A7000D48100231093DBF8643013F0010FBBF8EE
:104A80000C3002D19A0540F1DE805B063FF5B2ACF6
:104A900003982DB0BDE8F08F002A40F00681059AFA
:104AA0001D9201231192CDF870B01093CA460AF1FD
:104AB000080A029B590704D5089B01995C1A002C2F
:104AC00081DC039B089901988142ACBF5B181B18DD
:104AD000039372BB00231093CA46FFF7BCBB0FAA17
:104AE00004992046FFF73AFB50BB1099119A01F147
:104AF000010ECC4648E5002A40F040819DF8371071
:104B0000002900F01B8101220DF1370110461D9292
:104B10001C91CA4601460AF1080A013007E5029BCA
:104B2000012A00F09880022A0DD102930026002766
:104B3000B0E50FAA04990698FFF710FB0028C9D02A
:104B4000DDF810B097E7029300260027494600E001
:104B50005946F20842EA4772F80806F0070307468A
:104B60001646303356EA070201F8013C01F1FF3BDB
:104B7000EED1029AD6077FF59DAD302B3FF49AAD6A
:104B8000023930230BF8013CA9EB010305938B4656
:104B900076E4039B089A8A42ACBF9B185B18039388
:104BA00098E702224DE4002F08BF0A2E52D3CB46CD
:104BB000304639460A22002301F0C6FB30320BF89A
:104BC000012D3046394600230A2201F0BDFB06467E
:104BD0000F4656EA0703EBD16CE50594CB464FE44C
:104BE0000FAA04990698FFF7B9FA0028A8D1119ADC
:104BF000CA465EE70FAA04990698FFF7AFFA0028A5
:104C00009ED1CA46FFF7C0BBF8694000E869400082
:104C10000431166807910122002712E40798014623
:104C200004310668079100270BE40E6804310791F0
:104C3000002791E507990E680A46F7170432079294
:104C4000304639460FE5DBF8580000F07FFEBBF830
:104C50000C301AE7029B02930DF1B00B30360123A2
:104C60000BF8416D05930BE40FAA04990698FFF722
:104C700075FA00287FF464AF1099119A481CCA464F
:104C800051E60FAA04990698FFF768FA00287FF406
:104C900057AF1099119A481CCA4648E4002A40F0C0
:104CA000918001201146CA4641E60FAA0499069850
:104CB000FFF754FA00287FF443AF1098119A01309F
:104CC000CA4667E6D346D6E6079E073626F00702B1
:104CD00002F10801D2E9006707910122FFF7B1BB99
:104CE000079E073626F00706D6E9000106F10802FE
:104CF000079206460F46B6E4079E073626F00702DF
:104D000002F10801D2E9006707910022FFF799BB81
:104D1000079E073626F0070101F108000790D1E948
:104D2000006719E5CB46FFF7ABBB2D25764267EB55
:104D300047078DF837500122FFF788BB099BB3B9AD
:104D400011460120CA46F2E5DBF8580000F0FEFDEE
:104D50004FF0FF330393FFF750BB0FAA0499069857
:104D6000FFF7FCF900287FF4EBAE119AA9E60EAB31
:104D700002221C931D920120CA46D0E50FAA049975
:104D80000698FFF7EBF900287FF4DAAE1099119A34
:104D9000481CCA46A4E5079A03991368CD1708462C
:104DA000043229460792C3E90001FFF754BA584676
:104DB00007960293FFF764F9002405909DF8375099
:104DC000FFF75EBB0FAA04990698FFF7C7F9002802
:104DD0007FF4B6AE1099119A481CCA46A7E51099FF
:104DE000119A204E0131FFF790BB062C28BF0624F4
:104DF000059407960194DFF870B0D5E41098194E29
:104E0000013003E605949DF8375007960293044657
:104E1000FFF736BB8646FFF7CEBB06980FAA59466A
:104E2000FFF79CF900283FF424AE24E6079998F890
:104E300001200C68043144EAE474B8460791FFF796
:104E40003FBA8DF837503CE48DF8375021E58DF8A6
:104E50003750FFF7F4BB8DF8375091E48DF8375099
:104E600069E400BFE8694000E06940002DE9F041D5
:104E70000C46ADF58D6D8989666EE589199621F030
:104E800002010646E069ADF80C1017464FF4806148
:104E9000626AADF80E5098461AAD0023079016A826
:104EA00009920693009504950291059100F048FD42
:104EB00043463A4669463046FFF790F9051E07DB40
:104EC0003046694600F028F9002818BF4FF0FF353A
:104ED000BDF80C305B0603D5A38943F04003A381E2
:104EE000169800F02FFD28460DF58D6DBDE8F08178
:104EF00038B5304B1B6805460C4613B19A6B002A37
:104F000038D0B4F90C2093B218070CD52069A8B199
:104F100013F001021ED0636900225B42A361A2600C
:104F2000F0B1002038BDD9063CD5580726D42069F9
:104F300042F00803A3819BB20028E9D103F4207258
:104F4000B2F5007FE4D02846214600F02FFDA3896A
:104F50002069DDE7990758BF6269A2600028E0D1A7
:104F6000B4F90C301A06DDD543F04003A3814FF0AD
:104F7000FF3038BD184600F027F9C2E7216B51B168
:104F800004F14003994204D0284600F043FAB4F9F2
:104F90000C200023236300232069636022F0240295
:104FA0002060C5E742F0400209232B604FF0FF303C
:104FB000A28138BD24004020024B13B1024800F00A
:104FC00005B8704700000000395240000023014638
:104FD0001A46184601F090B8B1F90C309AB22DE992
:104FE000F0410D46110780463AD46A6843F40063E5
:104FF000002AAB816FDDAC6A002C49D000229BB245
:10500000D8F80060C8F8002013F4805267D02A6DE9
:105010005F0705D569682B6B521A0BB1EB6BD21A7F
:105020000023E9694046A047441C3CD0B5F90C3048
:105030002A692A6023F400630022AB81DB046A60E2
:1050400047D4296BC8F8006011B305F140039942B9
:1050500002D0404600F0DEF900202863BDE8F08170
:105060002E69AEB12C682E6091070CBF6B690023CE
:10507000A41BAB600AE0234632466F6AE9694046EA
:10508000B8470028A4EB0004064404DD002CF2DC41
:105090000020BDE8F081AB8943F04003AB814FF0C5
:1050A000FF30BDE8F081D8F800401D2CF3D8194B33
:1050B000E340DB4313F00103EDD1B5F90C206B6045
:1050C00022F400632969AB81DA042960B9D5002C88
:1050D000B7D12865B5E7EA6B002A8CDCD8E7012355
:1050E000E9694046A047431C024602D0AB89AC6A3E
:1050F0008EE7D8F80030002BF8D01D2B01D0162BEE
:1051000002D1C8F80060C3E7AB8943F04003AB812C
:10511000BDE8F0810100402038B50D46044608B1D5
:10512000836BBBB1B5F90C0088B16B6EDB0701D4A2
:10513000810517D520462946FFF74EFF6B6EDA072B
:10514000044602D4AB899B0507D5204638BD0446EA
:10515000204638BD00F038F8E4E7A86D00F0F6FB13
:10516000204638BDA86D00F0EFFBE3E7014900F0F1
:10517000AFBB00BFE161400010B500230446818150
:10518000C28103604360836043660361436183615E
:10519000194608225C30FEF72DFE07480749084AE9
:1051A000084B2062E4616162A262E36204F158008C
:1051B000BDE8104000F0C4BB255F4000495F4000DF
:1051C000855F4000A55F400010B50446124800F01E
:1051D000BBFBA26BD2B904F53B731048C4F8E832AC
:1051E0000321C4F8E022E063C4F8E41260680421FB
:1051F000FFF7C2FF01220921A068FFF7BDFF0222CD
:105200001221E068FFF7B8FF0123A3630248BDE85D
:10521000104000F09BBB00BF3C0E40206D51400091
:10522000014800F091BB00BF500E4020014800F043
:105230008DBB00BF500E402038B50A4C0A4D641B90
:10524000A4100AD004F18043013B05EB8305013C27
:1052500055F804399847002CF9D1BDE8384001F0E1
:1052600067BC00BF406B40003C6B40002DE9F0473D
:1052700082B080468946144600F054FB012836D09F
:105280004A4604F15C0301A9404600F0E7FE421CD7
:10529000064625D0A8B39DF804E000250DF1040AC8
:1052A00009E023685A1C226083F800E00135B5420A
:1052B00027D215F80AE0A368013B002BA360F0DABF
:1052C000A769BB4271462246404602DBBEF10A0F87
:1052D000E7D100F06BFE431CE8D102B0BDE8F087D7
:1052E000A38943F04003A38102B0BDE8F08709F130
:1052F000FF33FE2BC4D85FFA89FE06468DF804E022
:10530000CBE7484602B0BDE8F08700BF30B5536E2A
:1053100013F0010FB2F90C30144683B005469AB26F
:1053200001D190051CD5900406D4626E43F400535D
:1053300042F40052A381626628462246FFF796FF98
:10534000636EDA07054602D4A3899B0502D5284679
:1053500003B030BDA06D00F0F9FA284603B030BDAF
:10536000A06D019100F0F0FAB4F90C3001999AB2F5
:10537000D9E700BFF8B5244F0C460646FEF788FD76
:10538000BB685D68C4F57E610F3125F003052944D3
:1053900021F47F6121F00F01A1F58054B4F5805F05
:1053A00007DB00213046FEF77FFDBB682B449842A7
:1053B00004D03046FEF772FD0020F8BD6142304651
:1053C000FEF772FD01300DD0104BBA6819682D1B25
:1053D00045F001053046091B55601960FEF75EFD7A
:1053E0000120F8BD00213046FEF75EFDBA68831A41
:1053F0000F2BDEDD064C0549246843F00103001B3A
:1054000053600860D5E700BF50044020AC0D402039
:1054100058084020002944D02DE9F0410D4680462F
:10542000FEF736FD55F8047C694927F00103A5F124
:105430000804E2188E685068B24220F003005ED083
:10544000FE0750600BD455F8087CE41B01F1080EF0
:10545000A56875453B446DD0E768EF60BD601518E1
:105460006D68ED073ED543F001026260E350B3F58D
:10547000007F17D2DB08581C9A104D6851F8307025
:10548000A7600123934001EBC0022B43083AE2607E
:105490004B6041F83040FC604046BDE8F041FEF70B
:1054A000FDBC70475A0A042A52D89A0902F13907FA
:1054B000FF0002F13805C819CA59083890424FD088
:1054C000516821F003018B4232D292689042F7D1A9
:1054D000C368A060E3609C60C4604046BDE8F041E2
:1054E000FEF7DCBC95683B4FBD42034440D0D0681A
:1054F000E86043F0010285606260E350B7E7FF07B0
:10550000034407D455F8082CA41A1344A068E26891
:10551000C2609060304A126843F0010093426060BC
:105520008C60B9D32D4B40461968FFF723FFB3E7D2
:105530001046CDE711184968C90744D49168D2686C
:10554000CA60034443F0010091606060E350A3E748
:10555000142A16D802F15C07FF0002F15B05AAE7E6
:10556000AA1001234D6893402B434B600346B0E7DC
:1055700043F001024C610C61E560A5606260E3509C
:105580008AE7542A06D81A0B02F16F07FF0002F1CE
:105590006E0590E7B2F5AA7F06D8DA0B02F178071C
:1055A000FF0002F1770586E740F25450824206D8A8
:1055B0009A0C02F17D07FF0002F17C057BE74FF4B6
:1055C0007E777E2577E743F001016160136063E732
:1055D00050044020580440205C084020DC0D40204E
:1055E0009368002B73D02DE9F04F8B8983B00C4664
:1055F00019070090164626D5226922B313F002003F
:1056000035682CD04FF00009B04FC846B246B845B7
:1056100043464A4628BF3B460098B8F1000F50D099
:10562000E169666AB047002858DDDAF808301B1ACD
:105630008144A8EB0008CAF80830002BE7D100200D
:1056400003B0BDE8F08F21460098FFF751FC002819
:1056500040F03381A389356813F00200D2D113F0F2
:10566000010945D14F46019637B39A05D4F8088011
:1056700040F183804745C346C0F0AB8013F4906F80
:1056800040F0AC802068BA465A46494600F040FADD
:10569000A2682368A2EB08025B44A2602360019A1F
:1056A0009368A3EB0A03D144A7EB0A079360002B8E
:1056B000C5D0A389002FD8D1D5F800906F680835E0
:1056C000D2E7D5F80090D5F8048008359FE7002090
:1056D000704721460098FFF71FFD70B3B4F90C30F6
:1056E00043F040034FF0FF30A38103B0BDE8F08FDB
:1056F000814633464E46A8469A464D464EB380B341
:10570000206823696269B145CB4628BFB3469842F9
:105710005F4604D9A36813449B4500F3A6809345D4
:105720004BDB1346676AE16900982A46B847071EB3
:10573000D4DDB9EB0709CCD00120DAF80830DB1B47
:105740003D44F61BCAF80830002B3FF478AF002E1A
:10575000D5D108F1080313E9600098460833002EFC
:10576000F9D032460A21284600F082F9002800F0DC
:10577000A1800130A0EB0509C2E7206823699842A7
:1057800002D863699F425DD2B84528BFB8464246F9
:10579000494600F0BDF9A3682268A3EB0803424420
:1057A000A36022600BB1C24679E721460098FFF75B
:1057B000B3FC002892D1C24671E75A46294600F050
:1057C000A7F9A2682368A2EB0B025B44A2602360E6
:1057D000AFE72068B846BA46BB4655E7626920681D
:1057E000216902EB4208A0EB010A08EBD8780AF124
:1057F00001004FEA680838444045424684BF80466D
:1058000042465B0544D511460098FDF7A9FF834643
:10581000002855D052462169FEF752FAA38923F495
:10582000906343F08003A3810BEB0A00A8EB0A030B
:10583000C4F810B0C4F814802060A360B846BA461B
:10584000BB4621E76FF00041B94228BF39464A46BE
:1058500091FBF3F10098666A03FB01F3E169B0473D
:10586000B0F1000A3FF71BAF38E71A46294601930B
:1058700000F04EF92268019B00981A4422602146EC
:10588000FFF74AFC019B00287FF428AF1F4650E732
:10589000009800F0A1F983460028C5D1009D216938
:1058A0002846FFF7B7FDB4F90C300C2223F0800333
:1058B0002A6015E706F1010922E74FF0FF30BFE645
:1058C000009A0C231360B4F90C3009E700FCFF7F49
:1058D0002DE9F84310F538771FD0884606464FF07B
:1058E00000097D68BC68013D11D4A389012B05F135
:1058F000FF3508D9B4F90E3001332146304602D0C5
:10590000C04749EA00096B1C04F16804EDD13F6807
:10591000002FE6D14846BDE8F883B9464846BDE8C1
:10592000F88300BF044B054A1B685B6B002B08BF64
:10593000134693F828017047240040206408402053
:10594000704700BF704700BF704700BF704700BF7F
:1059500070B50C46B1F90E10002990B015461E46E0
:1059600014DB01AA00F09EFC00280FDB029A02F46F
:105970007042A2F50052B2FA82F252094FF48063EB
:105980004FF4006032602B6010B070BDA28900231C
:1059900012F08000336004D0402218462A6010B014
:1059A00070BD4FF480632B6010B070BD8A89920780
:1059B0000B4606D501F1430201211A601A615961B3
:1059C0007047F0B583B001AB6A460C460646FFF758
:1059D000BFFF009905463046FDF7C2FEB4F90C3012
:1059E000D8B1019A154F0099F76343F08003A38162
:1059F0002060206161611AB92B43A38103B0F0BD1F
:105A00003046B4F90E1000F061FCA0B1A38923F078
:105A1000030343F001031BB2EEE79A05EED423F033
:105A2000030304F1430243F002030121A381226036
:105A300022616161E2E7B4F90C30DDE76D514000AD
:105A400082B049B15AB16BB113780B601278101C57
:105A500018BF012002B0704701A9002AF3D11046F7
:105A600002B070476FF00100F4E700BF00000000D3
:105A700001F0FF01102A2BDB10F0070F08D010F8FF
:105A8000013B013A8B422DD010F0070F42B3F6D103
:105A9000F0B441EA012141EA014122F007047FF01C
:105AA00000070023F0E80256083C85EA010586EA73
:105AB000010685FA47F5A3FA87F586FA47F6A5FAAF
:105AC00087F68EB9EED1F0BC01F0FF0102F00702BB
:105AD00032B110F8013B013A83EA010313B1F8D166
